:020000040800F2
:1000000000500020B1070008E1010008ED010008E0
:10001000F3010008F9010008FF01000800000000DA
:1000200000000000000000000000000005020008C1
:1000300011020008000000001D020008290200084B
:10004000F9070008F9070008F9070008F907000890
:10005000F9070008F9070008F9070008F907000880
:10006000F9070008F9070008F9070008F907000870
:10007000F9070008F9070008F9070008F907000860
:10008000F9070008F9070008F9070008F907000850
:10009000F9070008F9070008F9070008F907000840
:1000A000F9070008F9070008F9070008F907000830
:1000B000F9070008F9070008F9070008F907000820
:1000C000F9070008F9070008F9070008F907000810
:1000D000F907000805070008F9070008F9070008F4
:1000E000F9070008F9070008F907000800000000F8
:1000F0000000000000000000000000000000000000
:0C01000000000000000000005FF808F1A3
:10010C0010B5054C237833B9044B13B10448AFF345
:10011C0000800123237010BD0000002000000000AF
:10012C004408000808B5034B1BB103490348AFF35F
:10013C00008008BD000000000400002044080008F6
:10014C0080B582B000AF0121042000F017FA102313
:10015C00FB710123BB800323BB713B1D19461C485B
:10016C0000F01CF901211A4800F0D4F94FF4FA7090
:10017C0000F08CFA0121164800F0DAF94FF4FA700D
:10018C0000F084FA00220121114800F0DFF94FF44D
:10019C00FA7000F07BFA012201210D4800F0D6F92B
:1001AC004FF4FA7000F072FA00220121084800F0B6
:1001BC00CDF94FF4FA7000F069FA012201210448DC
:1001CC0000F0C4F94FF4FA7000F060FACAE700BF0F
:1001DC000008014080B400AF00BFBD4680BC704732
:1001EC0080B400AFFEE780B400AFFEE780B400AF90
:1001FC00FEE780B400AFFEE780B400AF00BFBD46A1
:10020C0080BC704780B400AF00BFBD4680BC704757
:10021C0080B400AF00BFBD4680BC704780B400AF57
:10022C0000BFBD4680BC704780B500AF154B1B6846
:10023C00144A43F001031360124B5A681149124BD4
:10024C0013404B600F4B1B680E4A23F0847323F44E
:10025C00803313600B4B1B680A4A23F48023136012
:10026C00084B5B68074A23F4FE035360054B4FF4BD
:10027C001F029A6000F00CF8044B4FF000629A6079
:10028C0000BF80BD001002400000FFF800ED00E050
:10029C0080B500AF00F002F800BF80BD80B483B021
:1002AC0000AF00237B6000233B603A4B1B68394A4C
:1002BC0043F480331360374B1B6803F400333B600B
:1002CC007B6801337B603B68002B03D17B68B3F503
:1002DC00A06FF0D12F4B1B6803F40033002B02D01E
:1002EC0001233B6001E000233B603B68012B4BD1B9
:1002FC00294B1B68284A43F010031360264B1B68DC
:10030C00254A23F003031360234B1B68224A43F056
:10031C00020313601F4B1F4A5B6853601D4B1D4A41
:10032C005B6853601B4B5B681A4A43F480635360F1
:10033C00184B5B68174A23F47C135360154B5B68AE
:10034C00144A43F4E8135360124B1B68114A43F0F0
:10035C008073136000BF0F4B1B6803F00073002BFE
:10036C00F9D00C4B5B680B4A23F003035360094B29
:10037C005B68084A43F00203536000BF054B5B689F
:10038C0003F00C03082BF9D100BF0C37BD4680BC21
:10039C00704700BF001002400020024080B489B0BA
:1003AC0000AF786039600023FB6100233B610023C0
:1003BC00BB610023FB6000237B610023BB603B68B7
:1003CC00DB7803F00F03FB613B68DB7803F0100371
:1003DC00002B05D03B689B781A46FB691343FB61E5
:1003EC003B681B88DBB2002B44D07B681B687B61AD
:1003FC000023BB6138E00122BB6902FA03F3FB6006
:10040C003B681B881A46FB6813403B613A69FB68E2
:10041C009A4226D1BB699B00FB600F22FB6802FA53
:10042C0003F3BB60BB68DB437A6913407B61FA69F9
:10043C00FB6802FA03F37A6913437B613B68DB7850
:10044C00282B05D10122BB699A407B685A6108E0D0
:10045C003B68DB78482B04D10122BB699A407B684E
:10046C001A61BB690133BB61BB69072BC3D97B68BC
:10047C007A691A603B681B88FF2B46D97B685B68DE
:10048C007B610023BB613AE0BB690833012202FAAD
:10049C0003F3FB603B681B881A46FB6813403B6107
:1004AC003A69FB689A4227D1BB699B00FB600F221B
:1004BC00FB6802FA03F3BB60BB68DB437A69134049
:1004CC007B61FA69FB6802FA03F37A6913437B6177
:1004DC003B68DB78282B05D1BB69083301229A4095
:1004EC007B685A613B68DB78482B05D1BB690833C4
:1004FC0001229A407B681A61BB690133BB61BB69FD
:10050C00072BC1D97B687A695A6000BF2437BD4676
:10051C0080BC704780B483B000AF78600B467B80A2
:10052C007A887B681A6100BF0C37BD4680BC704767
:10053C0080B483B000AF78600B467B807A887B6890
:10054C005A6100BF0C37BD4680BC704780B483B085
:10055C0000AF78600B467B8013467B707B78002B5A
:10056C0003D07A887B681A6102E07A887B685A61CA
:10057C0000BF0C37BD4680BC7047000080B483B010
:10058C0000AF78600B46FB70FB78002B06D0094B54
:10059C009A6908497B6813438B6106E0054B9A699D
:1005AC007B68DB43034913408B6100BF0C37BD46AE
:1005BC0080BC70470010024080B483B000AF7860FC
:1005CC007B689B889BB2C3F308039BB218460C371D
:1005DC00BD4680BC704780B487B000AF78600B46D6
:1005EC007B800023FB6000237B610023BB60002326
:1005FC00FB747B88DBB25B09DBB2BB607B8803F0EE
:10060C001F037B6101227B6902FA03F37B61BB68E8
:10061C00012B07D17B689B899BB21A467B691340DF
:10062C007B6111E0BB68022B07D17B681B8A9BB2F4
:10063C001A467B6913407B6106E07B689B8A9BB200
:10064C001A467B6913407B617B881B0A9BB2FB605B
:10065C000122FB6802FA03F3FB607B681B889BB2E8
:10066C001A46FB681340FB607B69002B05D0FB68C6
:10067C00002B02D00123FB7401E00023FB74FB7CF4
:10068C0018461C37BD4680BC7047000080B485B04E
:10069C0000AF0346FB80FB88154A12881146154AA9
:1006AC0001FB03F35360134B00229A60114B1B6840
:1006BC00104A43F0010313600E4B1B68FB60FB6890
:1006CC0003F00103002B04D0FB6803F48033002BF0
:1006DC00F2D0084B1B68074A23F001031360054B4B
:1006EC0000229A6000BF1437BD4680BC704700BF23
:1006FC001C00002010E000E080B582B000AF40F29A
:10070C0025512548FFF767FF0346002B3FD02248B1
:10071C00FFF752FF0346FB71204B1B881BB2002BCB
:10072C0035DB1E4B1B8803F48043002B10D0FB7968
:10073C000A2B03D0194B00221A8028E0174B1B8878
:10074C006FEA43436FEA53439AB2144B1A801EE08C
:10075C00FB790D2B07D1114B1B8843F480439AB2C4
:10076C000E4B1A8013E00D4B1B88C3F30D030C4981
:10077C00FA79CA54094B1B8801339AB2074B1A8079
:10078C00064B1B88C72B02D9044B00221A8000BFD2
:10079C000837BD4680BD00BF00380140E80000208E
:1007AC0020000020002103E00B4B5B584350043128
:1007BC000A480B4B42189A42F6D30A4A02E000232D
:1007CC0042F8043B084B9A42F9D3FFF72DFD00F099
:1007DC000FF8FFF7B5FC7047640800080000002014
:1007EC000000002000000020EC000020FEE70000CC
:1007FC0070B500260C4D0D4C641BA410A64209D1FB
:10080C0000F01AF800260A4D0A4C641BA410A642EC
:10081C0005D170BD55F8043B98470136EEE755F805
:10082C00043B98470136F2E75C0800085C080008B6
:10083C005C08000860080008F8B500BFF8BC08BCEC
:10084C009E467047F8B500BFF8BC08BC9E46704782
:04085C00310100085E
:040860000D0100087E
:04000005080007B137
:00000001FF
